S01800006275696C642F6D6963617A2F6D61696E2E73726563E5
S11300000C9449000C94E6040C94F0040C94FA0447
S11300100C9404050C940E050C9418050C943106EC
S11300200C9422050C9468000C9468000C943A1506
S11300300C94B70B0C94B0040C94C6040C942C05CB
S11300400C949F040C94EB0D0C9468000C946800C1
S11300500C9468000C9468000C9468000C9468007C
S11300600C94BB040C9468000C9468000C94680015
S11300700C9468000C9468000C9468000C9468005C
S11300800C9468000C9468000C94680000081C1818
S1130090141011241FBECFEFD0E1DEBFCDBF11E09D
S11300A0A0E0B1E0EEEEF1E300E00BBF02C0079088
S11300B00D92AE30B107D9F712E0AEE0B1E001C065
S11300C01D92AC34B107E1F70E9470130C94F6183A
S11300D00C9400008FB7F894992708958FBF089562
S11300E0FC0182819927582F442781819927482B25
S11300F0592BCA01892F992786958695837090700C
S11301008230910559F08330910559F0892B19F407
S113011020E030E008C02CE93FEF05C022E030E0E9
S113012002C028E030E0CA0184E0989F812D99271D
S113013011248230910559F08330910559F0892BAF
S113014019F480E090E008C08CE99FEF05C082E0DC
S113015090E002C088E090E0280F391F2A5F3F4FEB
S1130160CF01820F931F0895282F9FB7F894662319
S113017049F0E82FFF27EE52FE4F8081882311F0CB
S113018021E006C0E22FFF27EE52FE4F608320E0FD
S1130190892F99278FBF822F99270895E82F8FB72A
S11301A0F894282F332790E0FF27EE52FE4F8081EA
S11301B0861709F491E02FBF892F99270895882382
S11301C011F06E9A08956E980895882311F06F9A2D
S11301D008956F98089580E00E94DF00BA9ABB9852
S11301E0B99AB89A6C9A80E00E94E5006B986A9874
S11301F081E00E94DF00709A8DB18C7F8DB90895E3
S11302000F931F93CF93DF93182F8FB7F894C82FB2
S1130210DD270C2F61E080E00E94B400882321F0E8
S1130220CFBF85E090E024C0809105018823A1F42C
S113023080911801823081F409C082E08093180112
S1130240109205010E94EB00B89AC0981093020125
S113025080E00FBF99270CC080911801882369F3AF
S11302608FB7F89499271092D2018FBF81E0F1CF14
S1130270DF91CF911F910F910895282F9FB7F89484
S1130280E82FFF27E059FE4F80818F3F81F4E091F2
S11302904A02E21771F40BC020933C0204C0FF270A
S11302A0E059FE4F208320934A0220E007C025E056
S11302B005C080913C028F3F91F7EECF892F99279B
S11302C08FBF822F992708951F93182F81E00E94D2
S11302D0DF001FB9779BFECF8FB199271F91089537
S11302E08F929F92AF92BF92CF92DF92EF92FF9242
S11302F00F931F93CF93DF938FB7F8949927C090F0
S11303004502D09046028090CB019090CC01C091E0
S1130310AA01D091AB012091550130915601EAE038
S1130320AE2EB12CAC0EBD1E2A153B0508F45901A6
S11303308FBF7401EC0EFD1E86010C0F1D1F14C02F
S1130340C114D10419F0F801808101C080E00E9439
S113035064018114910411F0F701808321960894BB
S1130360E11CF11C0F5F1F4FC5010197C817D90786
S113037038F381E00E94E5009FB7F894C114D104DA
S113038031F0CC0EDD1EF60180818FB901C01FB89B
S1130390D093AB01C093AA01892F99278FBF80E026
S11303A090E0DF91CF911F910F91FF90EF90DF903C
S11303B0CF90BF90AF909F908F9008952FB7F894EF
S11303C033275093560140935501909346028093EE
S11303D045027093CC016093CB011092AB01109253
S11303E0AA012FBF452B29F08FB10E9470019927D4
S11303F0089589E00E943D0180E090E008958FB760
S1130400F89499271092D4018FBF0895EF920F9317
S11304101F93AE2D99E0899FF0011124E055FE4F02
S113042040835183628373830483158326833783D4
S1130430A17080858E7F8A2B8260808781E00E94F4
S11304403D011F910F91EF9008957FB7F89462B723
S1130450209158013091590140915A0150915B010A
S113046006B601FE0FC081B792B7280F311D411D9A
S1130470511D2F5F3F4F4F4F5F4F290F311D411DBE
S1130480511D04C0260F311D411D511D872F992771
S11304908FBFCA01B901089580E880936E0110925C
S11304A0890110923F0210923B0210928501089537
S11304B0CF93DF93FC0115A6DC019E96ED011B8210
S11304C01A82198280E886A7DF91CF9108952F922E
S11304D03F924F925F926F927F928F929F92AF92D0
S11304E0BF92CF92DF92EF92FF920F931F93CF931D
S11304F0DF93CDB7DEB728970FB6F894DEBF0FBEF3
S1130500CDBF20908F013090900140909101509088
S11305109201662477248824BEE4AB2EA3E8BA2E85
S1130520CC24DD24EE24FF2400E010E0222D332D22
S1130530442D552D662D772D882D90E00E94D816D8
S113054029833A834B835C836D837E838F8398876F
S1130550822E932EA42EB52E2401350100E20E9492
S1130560D617A22EB32EC42ED52EC301B201969552
S11305708795779567956A0D7B1D8C1D9D1D97FF4B
S113058005C09F776F5F7F4F8F4F9F4F60938F01A1
S113059070939001809391019093920128960FB6E5
S11305A0F894DEBF0FBECDBFDF91CF911F910F91A5
S11305B0FF90EF90DF90CF90BF90AF909F908F907F
S11305C07F906F905F904F903F902F9008958FB7DA
S11305D0F8946091AE017091AF012CB53DB506B6AB
S11305E002FE04C06F5F7F4F2CB53DB599278FBFC6
S11305F088279927CB017727662744275527622B1D
S1130600732B842B952B0895EF92FF920F931F93D6
S11306100E94E7027B018C012091990130919A019B
S113062040919B0150919C0180919401909195017E
S1130630A0919601B0919701820F931FA41FB51F3B
S1130640E216F3060407150730F082179307A40790
S1130650B50758F005C082179307A407B507E0F55E
S1130660E816F9060A071B07B8F59C01AD012E1917
S11306703F09400B510B213060E8360760E0460724
S113068060E0560768F180E090E8A0E0B0E0E80E92
S1130690F91E0A1F1B1FE0929901F0929A01009320
S11306A09B0110939C0180E090E8AFEFBFEFE80E50
S11306B0F91E0A1F1B1F2050304840405040209311
S11306C0940130939501409396015093970120E053
S11306D030E840E050E014C020E030E040E050E07A
S11306E08093990190939A01A0939B01B0939C01EC
S11306F01092940110929501109296011092970114
S1130700A901B7012CB53DB5C9018E199F090396FE
S11307108417950720F0B9016D5F7F4F02C0640F05
S1130720751F6115710511F461E070E0615070404E
S11307307BBD6ABD80E186BF87B7806187BF1F919B
S11307400F91FF90EF9008950F931F930FB7F894B4
S113075011276093990170939A0180939B01909360
S11307609C012093940130939501409396015093FA
S113077097010E9404030FBF1F910F91089597B72B
S11307809F7D97BF90E296BF882319F08EB5806451
S113079002C08EB58F7B8EBD87B7806287BF80E035
S11307A090E00895DF92EF92FF920F931F938FB71B
S11307B0F894282F3327D22E91B782B746B79817CB
S11307C011F041FF02C02FBF6AC08091A9018823A4
S11307D0E1F10E942502E090CE01F090CF0100915A
S11307E0D0011091D10120916A0130916B014091A7
S11307F06C0150916D016E197F09800B910B62178A
S113080073078407950720F01092A90171E01EC0B8
S11308102E0D3F1D401F511F809158019091590189
S1130820A0915A01B0915B01281B390B4A0B5B0B59
S1130830273E31054105510540F4822F223010F046
S113084070E005C070E082E002C070E086EE682FC0
S1130850615000B601FCFDCF82B7681709F46F5FE1
S1130860209158013091590140915A0150915B01F6
S1130870DA01C9010196A11DB11D860F911DA11DAB
S1130880B11D82179307A407B50710F4622F609572
S113089061BFDFBE772319F080E00E943D011F9104
S11308A00F91FF90EF90DF900895AFB7F894BB27B6
S11308B0E1E0E093A9016093CE017093CF018093AE
S11308C0D0019093D10120936A0130936B0140933E
S11308D06C0150936D01AFBF0E94D2030895AF9293
S11308E0BF92CF92DF92EF92FF920F931F93CF9319
S11308F0DF93CDB7DEB728970FB6F894DEBF0FBEEF
S1130900CDBF20E070E0E0910001F091010132E1FF
S11309104DE65CE46FE4809101019E2F28960FB6AA
S1130920F894DEBF0FBECDBFDF91CF911F910F9121
S1130930FF90EF90DF90CF90BF90AF9008951F92FB
S11309400F920FB60F9211248F9383B783BF00B613
S113095000FCFDCF8F910F900FBE0F901F90189544
S113096078941F920F920FB60F9211240F900FBE1E
S11309700F901F90189578941F920F920FB60F92B4
S113098011240F900FBE0F901F90189578941F920A
S11309900F920FB60F9211242F933F938F939F932F
S11309A02FB7F89433278091AE019091AF0101964F
S11309B09093AF018093AE012FBF9F918F913F9190
S11309C02F910F900FBE0F901F9018951F920F92AA
S11309D00FB60F9211240F900FBE0F901F90189511
S11309E01F920F920FB60F9211240F900FBE0F900B
S11309F01F9018951F920F920FB60F9211240F900B
S1130A000FBE0F901F9018951F920F920FB60F9262
S1130A1011240F900FBE0F901F9018951F920F92E4
S1130A200FB60F9211240F900FBE0F901F901895C0
S1130A301F920F920FB60F9211240F900FBE0F90BA
S1130A401F9018951F920F920FB60F9211240F90BA
S1130A500FBE0F901F9018951F920F920FB60F9212
S1130A6011242F933F934F935F936F937F938F93AF
S1130A709F93AF93BF93EF93FF9383B783BF00B666
S1130A8000FCFDCF81B799270196AA27BB272091A7
S1130A9058013091590140915A0150915B01280F3E
S1130AA0391F4A1F5B1F209358013093590140930B
S1130AB05A0150935B0178940E94D203FF91EF9105
S1130AC0BF91AF919F918F917F916F915F914F9162
S1130AD03F912F910F900FBE0F901F9018950F9379
S1130AE01F93182F0FB7F89461E080E00E94B400C0
S1130AF0882371F510930201809105018823A9F5DB
S1130B0080911801823089F588E00CC00E94EB00C6
S1130B1080911801882349F481E080931801109290
S1130B2086018AE00E943D012AC0809198018F3F8E
S1130B3031F5E0910401EE2311F11CC01092030180
S1130B4004C0FF27E856FE4F10821092040117C01C
S1130B5081E090E002C0880F991F1A95E2F7209176
S1130B601701282B209317010AC0809118018823AC
S1130B70E1F6CCCF809103018F3F19F7DFCF802FAF
S1130B8099278FBF80E090E01F910F9108951F93E4
S1130B9083E00E9400019927182F882319F083E02D
S1130BA00E946F05812F99271F910895EF92FF925C
S1130BB00F931F93CF93DF93182F7B01042F8FB7CD
S1130BC0F894C82FDD2760E080E00E94CE008823DF
S1130BD021F0CFBF80E090E014C0CFBF1064812F1C
S1130BE099279093A2018093A1010E946401182F78
S1130BF0402F5527B70180E090E00E94DE01812F4D
S1130C009927DF91CF911F910F91FF90EF90089555
S1130C10C098609153017091540141E08FE30E94A8
S1130C20D605089582E090E09093800180937F013F
S1130C3081E08093890120E030E0809102018430DA
S1130C4011F421E030E0232B29F484E00E94000118
S1130C50882319F40E940806089584E00E946F0511
S1130C6008951F920F920FB60F9211242F933F9362
S1130C704F935F936F937F938F939F93AF93BF93A0
S1130C80EF93FF9380917F0190918001019749F444
S1130C9082E090E09093800180937F010E9412068D
S1130CA005C0809185018F5F80938501FF91EF914D
S1130CB0BF91AF919F918F917F916F915F914F9170
S1130CC03F912F910F900FBE0F901F9018951F9377
S1130CD080911701882309F04BC0109102011F3F36
S1130CE009F046C060E00E94CE00882309F440C0A9
S1130CF081E08093E10180916F018823E1F11092FA
S1130D00E10185E090E045C0923069F5C09A809198
S1130D10030120E030E08F3F11F421E030E0232B89
S1130D20E9F4109305018F3F19F42FEF30E00DC063
S1130D30282F3327F901E856FE4F80818093030161
S1130D408F3F11F41093040110832093860181E0F6
S1130D50809318018AE00E943D0105C010930501AB
S1130D601092180111C080911801882369F00FC0F6
S1130D7081E090E00EC080910501909118018823D4
S1130D8019F2923021F0EFCF80E00E94DF0080E082
S1130D9090E01F9108951F93CF93DF939FB7F8942A
S1130DA0C92FDD271C2F90910201981721F0CFBF86
S1130DB081E090E03AC08FEF8093020130911701F7
S1130DC03323F1F48FB7F89499271092D2018FBF8F
S1130DD00E946706CFBF11C02093020181E090E01A
S1130DE002C0880F991F4A95E2F780953823309303
S1130DF0170188E00E943D011FBF80E090E015C00C
S1130E0080E065E0E32FFF270E945918292F492F1E
S1130E105527CF01042E02C0959587950A94E2F7D1
S1130E2080FDDACF822F8F5FEFCFDF91CF911F91BB
S1130E3008951F93CF93DF938FB7F894C82FDD27BE
S1130E401C2F80917F0190918001892B29F484E0EB
S1130E500E94CB06CFBF1EC01092890180918501EC
S1130E60882311F0B79904C00E9908C0882319F09B
S1130E708150809385010E9412060BC081E090E0AE
S1130E809093800180937F011092850184E00E94F9
S1130E90CB061FBFDF91CF911F910895FF920F934F
S1130EA01F93CF93DF93F82E8B018FB7F894C82F3D
S1130EB0DD2760E080E00E94CE00882321F0CFBFD0
S1130EC080E090E00CC0CFBF8F2D0E946401812F81
S1130ED099270E946401802F0E9464019927DF9161
S1130EE0CF911F910F91FF9008951F931FB7F8940E
S1130EF080918401882319F460E070E009C060E007
S1130F0080914402882309F461E081E0682777270F
S1130F1080918C01882319F480E090E00AC090E06D
S1130F208091D701882309F491E081E09827892FE3
S1130F309927762F6627770F770F770FE4E0880FCE
S1130F40991FEA95E1F7826E9262682B792B81E111
S1130F500E944E07812F99278FBF1F9108958FB745
S1130F60F89499276091E0018FBF85E0689FB001F4
S1130F701124625D7E4F706488E10E944E070895DB
S1130F80EF92FF921F93CF93DF93E0908D01F09047
S1130F908E01F70182A59927182F882309F41FE1F0
S1130FA0C09880918301811749F0612F77276F7171
S1130FB07070606E706885E10E944E071093830123
S1130FC0F70110818FB7F894C82FDD2760E080E027
S1130FD00E94CE00882311F0CFBF12C0CFBF8EE392
S1130FE090E09093A2018093A1018EE30E9464019A
S1130FF01150412F552760E070E0C7010E94DE01C7
S1131000DF91CF911F91FF90EF9008950F931F935D
S1131010CF93DF93EC010FB7F89411270E9470006F
S1131020FC018FE380830FBF1092420210924102B1
S113103061E082E00E94B400882319F085E090E02A
S113104072C08091E2018F5F8093E20181508B83B3
S11310508FB7F894082F112762E081E00E94CE0038
S1131060882329F40FBF0E94FF0181E05BC08FB782
S1131070F894992724E02093D3018FBFD093A8013B
S1131080C093A7010FBFFE01319681812981992761
S1131090982F88273327822B932B80729C7C8983FB
S11310A0892F992781832981982F882733272164C1
S11310B0822B932B8983892F992781831CA618A6B9
S11310C019A619AA18AA1FA680E88EA761E0609342
S11310D0D6014091A7015091A8018FB7F894282F09
S11310E033278091190190911A018830910511F0EC
S11310F0019711F02FBF15C082E090E090931A0180
S11311008093190160934B0250938E0140938D019B
S1131110109257012FBF0E94C705882311F40E9423
S1131120C00780E09927DF91CF911F910F91089517
S1131130CF93DF93DA01422F2D3118F082E090E053
S11311405EC0ED018B876E83872F99278F832FB71E
S1131150F894332780918A0190918B012FBFFD0170
S11311608483892F992785832FB7F8943327809117
S11311700601909107012FBF8887892F99278987B6
S11311803196818129819927982F882733272064D4
S11311903868822B932B8983892F99278183435F16
S11311A04C934D5080910901882359F01092090104
S11311B0642FCD010E9406089927282F8823A9F4BB
S11311C017C0842F99279093A6018093A501B0930B
S11311D01E01A0931D018CE00E943D018091090134
S11311E0882349F489E090E00AC08FEF80930901D5
S11311F0822F992704C01092930180E090E0DF9140
S1131200CF910895CF93DF93FB01DB01169686837C
S1131210892F9927ED0189838DE283878091AC0121
S11312209091AD01892B19F085E090E02BC070936B
S1131230AD016093AC01435F40834D5080910C013C
S1131240882319F480E090E01DC08385ED01698155
S11312507727762F662726813327622B732B1092EC
S11312600C01242FAF010E9498089927282F882366
S113127039F081E080930C011092AD011092AC0121
S1131280822F9927DF91CF910895AF92BF92CF9289
S1131290DF92EF92FF920F931F93CF93DF935B0143
S11312A06C01C0E0D0E0E0EBF1E0608561FF85C057
S11312B02081318142815381E480F5800681178148
S11312C0D601C501821B930BA40BB50B8E159F058C
S11312D0A007B10708F471C060FF03C06D7F608789
S11312E008C02E0D3F1D401F511F208331834283B0
S11312F05383CC2321F0C13009F065C02FC0809105
S11313001201882309F05FC080910E0190910F01B2
S1131310019690930F0180930E014091100150911A
S113132011014F5F5F4F50931101409310012091C1
S113133000013091010120932C01232F33272093A6
S11313402B0180932E01892F992780932D0140939F
S11313503001452F552740932F0122C0809112015F
S1131360882389F5809100019091010180932C01DB
S1131370892F992780932B0180910E0190910F0161
S113138080932E01892F992780932D01809110013C
S11313909091110180933001892F992780932F0117
S11313A046E06FE171E08FEF9FEF0E94020988230E
S11313B051F481E08093120106C021963996C3301E
S11313C0D10509F072CF81E00E943D01DF91CF91F8
S11313D01F910F91FF90EF90DF90CF90BF90AF904F
S11313E008951F93CF93DF93182FEB01E82FFF2766
S11313F0EE0FFF1FE455FE4F1182108210920C0174
S1131400E091AC01F091AD01309721F08091400260
S113141080FF0FC081E080930C0103C08EE00E9426
S11314203D011123C1F4CF51D140A9F4109212010E
S113143012C020812D50332767817727762F6627A6
S113144086819927682B792BAF0183850E949808A0
S1131450882339F3E3CFDF91CF911F9108959B0146
S113146080910C01882349F46091AC017091AD0125
S11314706217730711F40E94F1090895CF92DF9265
S1131480EF92FF920F931F93CF93DF938C01F62E6D
S11314906A01E22E8FB7F894C82FDD2760E080E060
S11314A00E94CE00882321F0CFBF80E090E01EC0D0
S11314B0CFBF0F0D111D802F80680E946401F82E8C
S11314C016950795802F807C0E9464010E2D0AC01A
S11314D0EE2DFF27E01BF109EC0DFD1D80810E941C
S11314E0640101500023A1F78F2D9927DF91CF913B
S11314F01F910F91FF90EF90DF90CF900895CF93BD
S1131500DF93CDB7DEB72C970FB6F894DEBF0FBECE
S1131510CDBF8FB7F894282FAE014F5F5F4FDA012C
S1131520E8EDF1E088E001900D928150E1F78091BF
S11315308A0190918B018987892F99278A878091C5
S11315409D0190919E018B87892F99278C872FBFAE
S11315502CE060E080E691E00E943E0A2C960FB6F3
S1131560F894DEBF0FBECDBFDF91CF9108951F93D6
S1131570CF93DF93182F8FB7F894C82FDD2760E03F
S113158080E00E94CE00882321F0CFBF80E090E06D
S113159005C0CFBF812F0E9464019927DF91CF91AD
S11315A01F9108950E944C02C09AC09888E00E943E
S11315B0B70A88E00E94B70AC09A84E00E94CB066A
S11315C00E94190708951F93182F81E090E09093CB
S11315D01A018093190110926F010E9467068FB758
S11315E0F8949927109313018FBF84E00E943D0162
S11315F01F91089561E081E00E94B4008823E9F41A
S11316008FB7F894282F33278091140190911501F6
S1131610892B11F02FBF20C081E090E09093150139
S1131620809314012FBFDD9A0E94E70224E130E089
S113163040E050E00E94A4030FC062E081E00E94F9
S1131640CE00882319F089E090E0089561E081E0FC
S11316500E94CE00882319F080E090E0089585E090
S113166090E00895CF92DF92EF92FF920F931F9331
S1131670CFB6F894DD240E946702DC01CB0166E456
S113168070E00E9465187BE0E72EF12CE80EF91E4D
S1131690F0924802E09247020E94E70200271127D5
S11316A0A80197010E94A403CFBE1F910F91FF9040
S11316B0EF90DF90CF9008951F93CF93DF938FB770
S11316C0F894C82FDD271C2F8091190190911A01DD
S11316D00897C9F489E00E94B70A83E00E94CB0608
S11316E0C09A81E090E090931A01809319018FB71A
S11316F0F894992723E0209313018FBF84E00E947C
S11317003D01CFBF30C0C09880914B02882311F0B7
S113171085E001C084E00E94B70A83FD09C080E02F
S11317200E94B70A83FF04C085E090E020E003C074
S113173083E090E021E090931A0180931901C09A0C
S11317401FBF222341F01092570183E00E94CB0671
S11317500E94320B08C00E94E70220E431E040E01E
S113176050E00E94A403DF91CF911F9108957894D3
S11317701F920F920FB60F9211241F932F933F9332
S11317804F935F936F937F938F939F93AF93BF9385
S1131790EF93FF9387B78F7E87BF78941FB7F89432
S11317A08091940190919501A0919601B091970137
S11317B00097A105B10509F051C0809119019091DC
S11317C01A018530910561F18630910530F483303A
S11317D0910549F0049781F51AC087309105F1F01D
S11317E0089751F514C0869B0FC084E090E0909355
S11317F01A01809319010E94E70227E030E040E0DB
S113180050E00E94A40318C00E94320B15C00E942D
S1131810C705882389F40E945C0B0EC080E00AC0CF
S113182089E00E94B70A81E00E94BF0383E00E941E
S1131830CB0687E00E94E30A809114019091150180
S1131840019771F482E090E0909315018093140164
S1131850DE98DE9A80E00E946F0502C00E940403B5
S1131860812F99278FBFFF91EF91BF91AF919F91E6
S11318708F917F916F915F914F913F912F911F9124
S11318800F900FBE0F901F901895EF92FF920F9339
S11318901F93CF93DF938B018091A1019091A201BB
S11318A086FF40C18F7B8F3309F08EC1C0915301F5
S11318B0D091540158815093810180917F0190917E
S11318C080018530910509F443C08630910509F4FF
S11318D08AC0029709F01FC185E090E090938001CF
S11318E080937F0140916E01852F99270196242FC3
S11318F03327281739074CF1B79906C00E9904C04D
S1131900451B415040936E01409181014A32E8F4F5
S11319104423A1F0BE016F5F7F4F483018F047E0C9
S113192050E007C086E090E09093800180937F01AF
S1131930552780E090E00E94DE0146C110928901A3
S1131940C09A84E00E94CB06E3C00E94D20A3CC144
S113195086E090E09093800180937F0180918C01D8
S1131960882309F439C08091D7018823A9F5898196
S113197085FF32C08F814E812FB7F8943327609151
S11319809D0170919E012FBF9927982F8827552775
S1131990842B952B8617970759F08F812E819927D1
S11319A0982F88273327822B932B8F5F9F4FA1F487
S11319B089818770813081F4C09AC0988AE00E943E
S11319C0B70AC09AC0984091810147502896BE0139
S11319D08FE30E94D605F8C04091810147505527F6
S11319E02896BE01A6CFC09A80918501882339F438
S11319F084E00E94CB0680918501882311F0B79979
S1131A000AC00E9B08C090913B02992321F080915B
S1131A1081018B3038F480915301909154010E94DC
S1131A2058023DC0913001F5E0913F02FF27EE0FCF
S1131A30FF1FEE0FFF1FE951FE4F208131814281CC
S1131A405381E0915301F091540121ABBB27A52FA1
S1131A50942F832F80ABCA01AA27BB2787A7252FE2
S1131A6033274427552726A780913F0299270196BB
S1131A7068E070E00E94791880933F0280913B02F5
S1131A80815080933B02882351F0809153019091BF
S1131A9054010E94580210923F0210923B0280911E
S1131AA08101FE01E80FF11D808187FF31C0012B08
S1131AB079F169816770E0915301F09154016230CA
S1131AC019F5A0918D01B0918E01109709F18091C3
S1131AD0190190911A010797D9F4ED019B81838133
S1131AE09817B1F487B78F7E87BF908181E08CA768
S1131AF0E90FF11D8291319688A780818F7789A79C
S1131B0080E00E94E30A04C0613011F48BE02AC033
S1131B100E94190759C010928901C09A84E00E945A
S1131B20CB0652C08E3309F04FC0C09A8091190180
S1131B3090911A010897C9F4C09889E00E94B70AE5
S1131B40C09A83E00E94CB0681E090E090931A0152
S1131B50809319018FB7F894992723E020931301F8
S1131B608FBF84E00E943D012FC080914B028823E7
S1131B7049F484E090E090931A01809319010E9443
S1131B805C0B22C083E00E94CB0683E090E090933C
S1131B901A01809319010E946702DC01CB0166E3FC
S1131BA071E00E946518EBE0EE2EF12CE80EF91EB0
S1131BB0F0926901E09268010E94E7020027112770
S1131BC0A80197010E94A403DF91CF911F910F9167
S1131BD0FF90EF9008951F920F920FB60F92112469
S1131BE02F933F934F935F936F937F938F939F9321
S1131BF0AF93BF93EF93FF932FB1E091CB01F0919B
S1131C00CC01309739F08091AA019091AB01E80F93
S1131C10F91F20838091AA019091AB0101969093C2
S1131C20AB018093AA0180E00E94E5004091550138
S1131C30509156018091AA019091AB0184179507A8
S1131C4018F40E9470011CC06091CB017091CC010A
S1131C5080914502909146021092CC011092CB01E2
S1131C6010924602109245021092560110925501AC
S1131C701092AB011092AA012FB120E00E94450CF2
S1131C80FF91EF91BF91AF919F918F917F916F9150
S1131C905F914F913F912F910F900FBE0F901F9026
S1131CA018958F929F92AF92BF92CF92DF92EF924C
S1131CB0FF920F931F93CF93DF93CDB7DEB7A8970F
S1131CC00FB6F894DEBF0FBECDBF873009F481C1D3
S1131CD0883098F4833009F403C1843038F48130B7
S1131CE009F45BC0823008F0B0C024C0853009F428
S1131CF04FC1863008F067C1FAC08B3009F496C230
S1131D008C3038F4893009F45AC28A3008F07AC227
S1131D1099C18D3039F08D3008F457C48E3009F0F4
S1131D20AFC49DC480914002882309F4A9C440E053
S1131D3051E074C480918201882361F52091E3010C
S1131D403091E4014091E5015091E601EFB7F89438
S1131D50FF276091CE017091CF018091D0019091C5
S1131D60D101E0906A01F0906B0100916C01109137
S1131D706D016E0D7F1D801F911FEFBF2093E30146
S1131D803093E4014093E5015093E60110928201FF
S1131D900E9455040E94250243C00E9425025B0153
S1131DA06C018FB7F89499271092A9018FBF5FEF48
S1131DB0E52E5FEFF52E5FEF052F5FE7152F60E04F
S1131DC0E0EBF1E0808581FF1CC080819181A281DC
S1131DD0B381A6019501281B390B4A0B5B0BDA0171
S1131DE0C9012481358146815781281B390B4A0B4F
S1131DF05B0B2E153F05400751071CF479018A013E
S1131E0061E0399631E0EB3CF307E1F6662309F42F
S1131E1037C41E141F04100611062CF0C601B501A8
S1131E200E9445092DC4E092E301F092E40100937D
S1131E30E5011093E60181E080938201A8019701F6
S1131E40C601B5010E9455041BC40FB7F8941127AD
S1131E5081E00E94BF0341E0E42EF12CF0921A01CC
S1131E60E092190110921B0110926F0110928301EC
S1131E700FBF0FB7F89411270E944C02F092800113
S1131E80E0927F011092890189B78F7B89BF80E43A
S1131E9088BF8AB780628ABF8AB78F7E8ABF89B7B4
S1131EA0806489BF0FBF8FB7F894082F11278091E2
S1131EB0140190911501049719F483E00E94B70A64
S1131EC00FBF0FB7F8941127C09A80E00E94CB0689
S1131ED00FBF8FB7F894992722E02093D30105C050
S1131EE08FB7F89499271092D3018FBFC9C38FB7C6
S1131EF0F8949927F09013018FBF63E081E00E946A
S1131F00CE00882359F10FB7F894112710921A01C3
S1131F101092190187B78F7E87BF87B78F7D87BFE0
S1131F2083E00E94CB06C09A0FBF0FB7F894112725
S1131F301092800110927F010E944C02C09A89B7CE
S1131F408F7B89BF0FBF1092150110921401DE9888
S1131F50DD98DE9A83E00E943D0107C08FB7F894B4
S1131F60992722E02093D3018FBF0091A7011091FC
S1131F70A8010E94FF018091410290914202892BA5
S1131F8009F07EC38FEF809309014F2DB8013DC343
S1131F908FB7F894282F3327122F80914902882372
S1131FA001F581E08093490280911401909115011B
S1131FB0049721F481E00E946F0503C086E00E942B
S1131FC03D011FBF5DC38FB7F89499271092490252
S1131FD08CCF8FB7F894282F33278091160188234C
S1131FE011F02FBF4DC32FBF80B3992736E09695CC
S1131FF087953A95E1F7182F117090919F01809180
S1132000A0018917D9F01917C9F484E090E09093DE
S11320101501809314018FB7F894992721E0209338
S113202016018FBF60E070E08DE10E944E070E94B0
S11320307F0AC09AC09882E00E943D011093A001DB
S113204087E06DC08FB7F8949927109102018FBF74
S1132050123009F467C0133030F4112359F01130F1
S113206009F00EC348C0133009F476C0143009F0E7
S113207007C3A2C0C0988FB7F894082F1127809186
S11320801401909115010297A1F583E090E09093DB
S113209015018093140168E170E08DE10E944E0700
S11320A081E080939F011092160180B3992726E066
S11320B0969587952A95E1F7817090708093A00199
S11320C087E00E943D0181E00E94B70A6FE772E059
S11320D08CE10E944E070E94AF070E94750766E5D7
S11320E07AE287E10E944E076FEF70E885E10E9473
S11320F04E070FBFC5C2C09886E00E94B70A0E946F
S1132100AF070E9475070E947F0AC09AC09883E0B7
S11321100E94B70AC09A81E00E94CB0686E00E9422
S11321203D01AEC2C0988FB7F894082F112760E024
S113213080E00E94CE00882311F00FBF0AC00FBFB9
S113214083E50E94640180E00E94640180E00E94B3
S11321506401C09A82E02DC08FB7F894992720912A
S113216019018FBF243039F0283041F0223001F5B5
S11321700E94C00785C20E945C0B82C2C09889E09D
S11321800E94B70AC09A83E00E94CB068FB7F894E6
S1132190992721E030E030931A01209319018FBF71
S11321A08FB7F8949927109313018FBF84E0B7CFAA
S11321B083E00E94CB0664C20E94080661C20FB786
S11321C0F894112740915501509156016091CB012B
S11321D07091CC0180914502909146021092CC01FD
S11321E01092CB01109246021092450210925601B1
S11321F0109255011092AB011092AA0120E00E94A6
S1132200450C77CF2FB7F8943327809186018093BC
S1132210050182E0809318012FBF80910501882376
S113222009F02EC2B89AC09888E079CFA0915301E2
S1132230B0915401FC909D012F0D311DF901808155
S1132240881F8827881FFD0183A7F90180818F7764
S1132250FD0181A721503040F9018081FD0180A753
S1132260A0915301B0915401FD0132818FB7F894CC
S11322709927209184018FBF222309F490C0832FD2
S11322809927969587959695879583709070823057
S1132290910541F5878146812FB7F89433276091E2
S11322A09D0170919E012FBF9927982F882755274C
S11322B0842B952B8617970719F481E090E06CC066
S11322C0FD018781268140E050E09927982F8827D7
S11322D03327822B932B8F5F9F4F11F441E050E003
S11322E0CA015AC0039709F067C19E012F5F3F4F8F
S11322F048ED51E088E0FA010190AF01F901019243
S11323009F018150C1F79E012F5D3F4FAE014F5F8A
S11323105F4F88E0FA010190AF01F90101929F013A
S11323208150C1F79E01275F3F4FAE014F5D5F4F64
S113233088E0FA010190AF01F90101929F018150F7
S1132340C1F79E012F5E3F4FAE01475F5F4F88E0AC
S1132350FA010190AF01F90101929F018150C1F787
S11323609E01275E3F4FAE014F5E5F4F88E0FA014A
S11323700190AF01F90101929F018150C1F748E03A
S113238050E0BE01675E7F4FCD0106960E94E218C1
S1132390892B09F011C103C0882309F40DC1FCE0A5
S11323A0FF1508F009C18090530190905401F40185
S11323B02281822F9927F6E096958795FA95E1F781
S11323C0039719F468E070E002C062E070E0822FC5
S11323D0992796958795969587958370907003971E
S11323E019F488E090E002C082E090E026E030E05A
S11323F0820E931E40E050E020E030E0F401E80F4C
S1132400F91F8AEF9FEF880E991E05C08191480F2E
S1132410511D2F5F3F4F26173707C4F3F401638123
S11324208FEF809343028FB7F894782F20E030E049
S1132430ECE5F1E0808191818417950729F482818C
S1132440861731F1209343022F5F3F4F3396243098
S1132450310581F77FBF909143023FB7F8949F3FC6
S113246021F080911C018917A9F420911C01822F6D
S11324709927FC01EE0FFF1FE80FF91FE45AFE4FE6
S11324805183408362832F5F237020931C010EC00D
S11324907FBF8EC0892F9927FC01EE0FFF1FE80F25
S11324A0F91FE45AFE4F518340836283832F992797
S11324B08FBF0FB7F8941127C4010E947000FC016C
S11324C090810FBFF40183A5882309F471C09F3361
S11324D009F06EC0878146812FB7F8943327609145
S11324E00601709107012FBF9927982F8827552738
S11324F0842B952B8617970761F08781268199276E
S1132500982F88273327822B932B8F5F9F4F09F0B7
S11325104FC0F40183858D3209F04AC0F3E1FF1600
S113252009F046C0F401808921899927982F8827CA
S11325303327822B932B20911001309111012817FE
S11325403907B0F5868527859927982F882733275B
S1132550822B932B90930F0180930E018089218904
S11325609927982F88273327822B932B9093110137
S113257080931001209100013091010184E690E0E4
S1132580289F5001299FB00C389FB00C112428ECCF
S113259030E0A20EB31ECC24DD240E942502AB0140
S11325A0BC01E1E0EE2E9601850181E00E94060265
S11325B090925401809253018FB7F8949927109206
S11325C089018FBF0E9419075BC09091930180918C
S11325D00901981709F454C0909309019923D1F47F
S11325E000911D0110911E016091A501C8010E9476
S11325F00608482F5527442309F442C08FEF8093DF
S1132600090160911D0170911E01F80183850E94EA
S11326102F0A36C08FEF8093090132C09091400297
S1132620852F8923B9F0E42FFF27EE0FFF1FE45510
S1132630FE4F2081318111821082852F809598234D
S113264090934002442331F42F513140B1F410925D
S1132650120113C04F5F483098F4550FDFCF8091BB
S11326600C01E82FFF27EE0FFF1FE455FE4F60819A
S1132670718141E00E94F10903C0550F41E0CECFC2
S1132680A8960FB6F894DEBF0FBECDBFDF91CF91F1
S11326901F910F91FF90EF90DF90CF90BF90AF907C
S11326A09F908F90089580913C028F3FB1F0282F26
S11326B03327F901E059FE4F808180933C028F3F1C
S11326C011F480934A028FEF80832F3F31F0822FE1
S11326D00E94510E81E090E0089580E090E008951A
S11326E0EF920F931F93CF93DF93CDB7DEB7E097AD
S11326F00FB6F894DEBF0FBECDBF1FB7F8944FE0FE
S113270050E06FEF70E080E791E00E94EF188FEFE8
S113271080933C0280934A0281E08EBD88E080BFB2
S113272083E083BF8CB59DB54AE72CB53DB528172A
S1132730390708F44150442311F0C901F6CF92B788
S113274082B78917E9F32CB53DB592B782B78917DB
S1132750E9F38CB59DB5821B930B4096F5E09695F5
S11327608795FA95E1F790933E0280933D0213BE5C
S113277083B78EBD8EB580BF12BE1DBC1CBC8FEF4F
S113278086BF86B780937C0080B799278770907046
S1132790892BD1F7D29AD19AD09ADA9AD99AD89A1F
S11327A015BA8FEF84BBD498DC981DBC1CBC87B7CA
S11327B0846087BF8EB5887F84608EBD0E9453136A
S11327C08823E1F78FEF80938701ECE5F1E08FEF49
S11327D09FEF918380831282339621E0E836F207DB
S11327E0C1F70E9467026093E20180910001909119
S11327F001010196AA27BB2780938F019093900132
S1132800A0939101B093920187E092E090935401D8
S1132810809353018E98B89A8C988FEF8093980187
S11328201092D2011092D3011092D4011092D501CA
S1132830B89AD69AD59A8FB7F89499272091060119
S1132840309107018FBF30939E0120939D010E9418
S11328506F0429A73AA74BA75CA76DA77EA78FA7EC
S113286098ABDE019196FE01B99688E001900D9235
S11328708150E1F7DE015196FE01B19688E00190A6
S11328800D928150E1F7DE015996FE01719688E0C0
S113289001900D928150E1F7A8EDB1E0FE01799627
S11328A088E001900D928150E1F780910801992709
S11328B090938B0180938A018FE18093CD018AE10B
S11328C08093E0010E946F0429A73AA74BA75CA755
S11328D06DA77EA78FA798ABDE019196FE01B996EE
S11328E088E001900D928150E1F7DE011196FE011E
S11328F0B19688E001900D928150E1F7DE011996BE
S1132900FE01319688E001900D928150E1F7A8ED27
S1132910B1E0FE01399688E001900D928150E1F713
S1132920A8EDB1E0FD0137969C9180818D93908351
S1132930319781E0EB3DF807B9F781E0809384019A
S11329401092440280938C011092D70180B7886062
S113295080BF8BE083BF86EE81BF87B7826087BF6D
S11329600E94D2030E9453138823E1F7812F9927F1
S11329708FBF78940E94FA0A80910001909101011E
S1132980892B69F40E942502AB01BC01E1E0EE2E23
S113299008EC10E020E030E080E00E9406028FB7EF
S11329A0F894482F55274BC087B7992783709070A8
S11329B0892B19F4E5E0F0E013C080B799278770FC
S11329C09070892BD1F781B792B7891B8C3030F086
S11329D082B7853F18F4E3E0F0E002C0E2E0F0E003
S11329E087B7887BC1F480917D008B7FA1F46E99B9
S11329F012C08AB190919A00892B887161F48091F8
S1132A00740082FD08C0379B03C081E090E005C0DC
S1132A1085E090E002C080E090E025B78E1708F4CE
S1132A20E82FFF27E457FF4FE491237E2062E22B37
S1132A30E5BF78948895F89485B78F7D85BF80919C
S1132A403C028F3F09F4B0CF282F3327F901E05916
S1132A50FE4F808180933C028F3F11F480934A02A1
S1132A608FEF80832F3F09F49FCF4FBF822F0E94A7
S1132A70510E95CF78941F920F920FB60F92112496
S1132A802F923F924F925F926F927F928F929F927A
S1132A90AF92BF92CF92DF92EF92FF920F931F9368
S1132AA02F933F934F935F936F937F938F939F9352
S1132AB0AF93BF93CF93DF93EF93FF93C6B5D7B58F
S1132AC08FB7F894282E0E94E7029B012C1B3D0B24
S1132AD0442755272B013C01421A530A640A750AFC
S1132AE08091190190911A018530910521F0069782
S1132AF009F0E0C0BFC086E090E090931A01809393
S1132B00190131E0332E3092880110921B0180E0CC
S1132B100E94BF03E0918D01F0918E0141AABB2771
S1132B20A72D962D852D80ABC301AA27BB2787A788
S1132B30872D9927AA27BB2786A7E0918D01F091BD
S1132B408E0185A5882309F484C0608165507727A8
S1132B504F01860E971EF4012081E1808281A380BB
S1132B609927AA27BB27BA2FA92F982F882733275D
S1132B7044275527522F442733272227FF24002791
S1132B8011278701FF24EE242E293F29402B512BA6
S1132B90BB24CC24DD242A293B294C295D29822B02
S1132BA0932BA42BB52B84199509A609B709838304
S1132BB0292F3A2F4B2F552722839D014427552730
S1132BC021838B2F9927AA27BB278083C09824E0D1
S1132BD0A40180E090E00E943E0AC09AF4012081A2
S1132BE0E1808281A3809927AA27BB27BA2FA92F26
S1132BF0982F8827332744275527522F44273327D4
S1132C002227FF24002711278701FF24EE242E29E1
S1132C103F29402B512BBB24CC24DD242A293B29DA
S1132C204C295D29822B932BA42BB52B840D951D48
S1132C30A61DB71D8383292F3A2F4B2F5527228397
S1132C409D014427552721838B2F9927AA27BB272A
S1132C508083E0918D01F0918E01818185FF02C016
S1132C6030926F0183E00E94CB0687B78F7E87BFC7
S1132C7084997AC01092880181E00E94BF03E09198
S1132C808D01F0918E01818185FF0FC087E090E076
S1132C9090931A01809319010E94E70220E031E029
S1132CA040E050E00E94A40303C080E00E94E30AD5
S1132CB0849B5AC080911B01882391F580918801DF
S1132CC0882371F511E0109388010E94BF0380B33B
S1132CD020913B02283098F4E0913F02E20FFF2755
S1132CE0E770F070EE0FFF1FEE0FFF1FE951FE4F6C
S1132CF040825182628273822F5F20933B02109341
S1132D001B01D093A401C093A30184992DC09927DA
S1132D10A4E096958795AA95E1F7182F117001C044
S1132D2010E0809188018130F9F4109288010E94AA
S1132D30BF0310921B011123B9F48091A301909158
S1132D40A401C81BD90B2A9778F480913B028823ED
S1132D5019F0815080933B0280918D0190918E01F6
S1132D60009711F00E9458022FBEFF91EF91DF915E
S1132D70CF91BF91AF919F918F917F916F915F910F
S1132D804F913F912F911F910F91FF90EF90DF9002
S1132D90CF90BF90AF909F908F907F906F905F90F7
S1132DA04F903F902F900F900FBE0F901F9018954B
S1132DB0ACE2B0E0EEEDF6E10C94AB18222E332E2B
S1132DC0442E552E662E772E882E992EFE0131968E
S1132DD0A8E01192AA95E9F729823A824B825C8293
S1132DE06D827E828F829886FE013996B8E01192B8
S1132DF0BA95E9F7A986BA86CB86DC86ED86FE8687
S1132E000F87188B89819A81AB81BC8189A79AA786
S1132E10ABA7BCA77C018D018FEF9FEFA0E0B0E0D2
S1132E20E822F9220A231B2389A59AA5ABA5BCA5F0
S1132E301D014424552489859A85AB85BC858DA3C1
S1132E409EA3AFA3B8A75C016D018FEF9FEFA0E035
S1132E50B0E0A822B922CA22DB228DA19EA1AFA193
S1132E60B8A53D0188249924C801B701A60195019C
S1132E700E948C1869A37AA38BA39CA3C801B701F1
S1132E80A40193010E948C187B018C01C201B10141
S1132E90A60195010E948C185B016C01C201B1016D
S1132EA0A40193010E948C183B014C01EA0CFB1C09
S1132EB00C1D1D1D89A19AA1ABA1BCA19D01442794
S1132EC055272E0D3F1D401F511F2A153B054C054C
S1132ED05D0540F480E090E0A1E0B0E0680E791E6A
S1132EE08A1E9B1ECA01AA27BB27860D971DA81DF3
S1132EF0B91D8D8F9E8FAF8FB8A3A90133272227C9
S1132F0089A19AA1ABA1BCA1A070B070280F391FF0
S1132F104A1F5B1F298F3A8F4B8F5C8FA98CBA8C09
S1132F20CB8CDC8CED8CFE8C0F8D18A1FE01719680
S1132F3098E011929A95E9F7ED8AFE8A0F8B188F23
S1132F402D813E814F8158856DA17EA18FA198A5C9
S1132F500E948C183B014C012D853E854F85588974
S1132F6069A57AA58BA59CA50E948C182D893E89FC
S1132F704F89588D260F371F481F591F260D371D9F
S1132F80481D591D2D8B3E8B4F8B588F6D887E8825
S1132F908F88988C2A2D3B2D4C2D5D2D662D772DF9
S1132FA0882D992DE2E1AC960C94C718A0E1B0E00D
S1132FB0ECEDF7E10C94AB18222E332E442E552E53
S1132FC0662E772E882E992E002309F466C088E099
S1132FD0FE01319611928A95E9F729833A834B834E
S1132FE05C836D837E838F829887E0E2E01B1E16EC
S1132FF0CCF52D813E814F815885602F772767FD61
S11330007095DA01C901062E04C0B695A795979567
S113301087950A94D2F78D879E87AF87B88B04C0B3
S1133020220F331F441F551FEA95D2F789819A81D5
S1133030AB81BC8104C0B695A795979587956A9591
S1133040D2F7282B392B4A2B5B2B29873A874B87BE
S11330505C8729843A844B845C846D847E848F8469
S113306098881BC01D861E861F86188A2E2F33271C
S113307027FD3095309521953F4F8D819E81AF81FD
S1133080B88504C0B695A795979587952A95D2F7E4
S113309089879A87AB87BC87DCCF222D332D442DBB
S11330A0552D662D772D882D992DE2E160960C948F
S11330B0C718991B79E004C0991F961708F0961B4E
S11330C0881F7A95C9F780950895AA1BBB1B51E107
S11330D007C0AA1FBB1FA617B70710F0A61BB70B84
S11330E0881F991F5A95A9F780959095BC01CD0129
S11330F0089597FB092E07260AD077FD04D0E5DF53
S113310006D000201AF4709561957F4F0895F6F764
S1133110909581959F4F0895629FD001739FF00110
S1133120829FE00DF11D649FE00DF11D929FF00D53
S1133130839FF00D749FF00D659FF00D9927729F8A
S1133140B00DE11DF91F639FB00DE11DF91FBD0115
S1133150CF01112408952F923F924F925F926F9264
S11331607F928F929F92AF92BF92CF92DF92EF9213
S1133170FF920F931F93CF93DF93CDB7DEB7CA1B94
S1133180DB0B0FB6F894DEBF0FBECDBF09942A88BF
S1133190398848885F846E847D848C849B84AA8467
S11331A0B984C884DF80EE80FD800C811B81AA81F4
S11331B0B981CE0FD11D0FB6F894DEBF0FBECDBFBF
S11331C0ED010895FB01DC0104C08D91019080198B
S11331D021F441505040C8F7881B990B0895DC0135
S11131E001C06D9341505040E0F70895FFCFB9
S11131EE0100FFFFFFFF010022FFFFFF0100B1
S9030000FC
